{
  "contractName": "AssetDistibutor",
  "abi": [
    {
      "inputs": [],
      "stateMutability": "nonpayable",
      "type": "constructor"
    },
    {
      "inputs": [
        {
          "internalType": "address",
          "name": "sender",
          "type": "address"
        }
      ],
      "name": "addBalance",
      "outputs": [],
      "stateMutability": "payable",
      "type": "function",
      "payable": true
    },
    {
      "inputs": [
        {
          "internalType": "address",
          "name": "addr",
          "type": "address"
        }
      ],
      "name": "showBalance",
      "outputs": [
        {
          "internalType": "uint256",
          "name": "",
          "type": "uint256"
        }
      ],
      "stateMutability": "view",
      "type": "function",
      "constant": true
    },
    {
      "inputs": [],
      "name": "checkContractBalance",
      "outputs": [
        {
          "internalType": "uint256",
          "name": "",
          "type": "uint256"
        }
      ],
      "stateMutability": "view",
      "type": "function",
      "constant": true
    },
    {
      "inputs": [
        {
          "internalType": "address payable",
          "name": "addr",
          "type": "address"
        },
        {
          "internalType": "uint256",
          "name": "amount",
          "type": "uint256"
        }
      ],
      "name": "witchDrawToAccount",
      "outputs": [],
      "stateMutability": "nonpayable",
      "type": "function"
    }
  ],
  "bytecode": "0x608060405234801561001057600080fd5b5033600160006101000a81548173ffffffffffffffffffffffffffffffffffffffff021916908373ffffffffffffffffffffffffffffffffffffffff1602179055506105c9806100616000396000f3fe60806040526004361061003f5760003560e01c806350312c9e1461004457806391b92ab71461006f5780639c080f5d14610098578063b5cef24a146100d5575b600080fd5b34801561005057600080fd5b506100596100f1565b60405161006691906102d0565b60405180910390f35b34801561007b57600080fd5b506100966004803603810190610091919061037a565b6100f9565b005b3480156100a457600080fd5b506100bf60048036038101906100ba91906103f8565b610217565b6040516100cc91906102d0565b60405180910390f35b6100ef60048036038101906100ea91906103f8565b61025f565b005b600047905090565b600160009054906101000a900473ffffffffffffffffffffffffffffffffffffffff1673ffffffffffffffffffffffffffffffffffffffff163373ffffffffffffffffffffffffffffffffffffffff1614610189576040517f08c379a000000000000000000000000000000000000000000000000000000000815260040161018090610482565b60405180910390fd5b478111156101cc576040517f08c379a00000000000000000000000000000000000000000000000000000000081526004016101c3906104ee565b60405180910390fd5b8173ffffffffffffffffffffffffffffffffffffffff166108fc829081150290604051600060405180830381858888f19350505050158015610212573d6000803e3d6000fd5b505050565b60008060008373ffffffffffffffffffffffffffffffffffffffff1673ffffffffffffffffffffffffffffffffffffffff168152602001908152602001600020549050919050565b346000808373ffffffffffffffffffffffffffffffffffffffff1673ffffffffffffffffffffffffffffffffffffffff16815260200190815260200160002060008282546102ad919061053d565b9250508190555050565b6000819050919050565b6102ca816102b7565b82525050565b60006020820190506102e560008301846102c1565b92915050565b600080fd5b600073ffffffffffffffffffffffffffffffffffffffff82169050919050565b600061031b826102f0565b9050919050565b61032b81610310565b811461033657600080fd5b50565b60008135905061034881610322565b92915050565b610357816102b7565b811461036257600080fd5b50565b6000813590506103748161034e565b92915050565b60008060408385031215610391576103906102eb565b5b600061039f85828601610339565b92505060206103b085828601610365565b9150509250929050565b60006103c5826102f0565b9050919050565b6103d5816103ba565b81146103e057600080fd5b50565b6000813590506103f2816103cc565b92915050565b60006020828403121561040e5761040d6102eb565b5b600061041c848285016103e3565b91505092915050565b600082825260208201905092915050565b7f4f6e6c79206f776e65722063616e207769746864726177000000000000000000600082015250565b600061046c601783610425565b915061047782610436565b602082019050919050565b6000602082019050818103600083015261049b8161045f565b9050919050565b7f4e6f7420656e6f7567682062616c616e63650000000000000000000000000000600082015250565b60006104d8601283610425565b91506104e3826104a2565b602082019050919050565b60006020820190508181036000830152610507816104cb565b9050919050565b7f4e487b7100000000000000000000000000000000000000000000000000000000600052601160045260246000fd5b6000610548826102b7565b9150610553836102b7565b9250827fffffffffffffffffffffffffffffffffffffffffffffffffffffffffffffffff038211156105885761058761050e565b5b82820190509291505056fea2646970667358221220eaea52e17f17afd1095b7b9fa0fff7a5a6435c39db51953de092d3c41a56f87864736f6c634300080d0033",
  "immutableReferences": {},
  "source": "// SPDX-License-Identifier: MIT\npragma solidity ^0.8.13;\n\ncontract AssetDistibutor {\n\tmapping (address => uint) balances;\n\taddress owner;\n\n\tconstructor() {\n\t\towner = msg.sender;\n\t}\n\n\tfunction addBalance(address sender) external payable{\n\t\tbalances[sender] += msg.value;\n\t}\n\n\tfunction showBalance(address addr) external view returns (uint) {\n\t\treturn balances[addr];\n\t}\n\n\tfunction checkContractBalance() external view returns (uint) {\n\t\treturn address(this).balance;\n\t}\n\t\n\tfunction witchDrawToAccount(address payable addr, uint amount) external {\n\t\trequire(msg.sender == owner, \"Only owner can withdraw\");\n\t\trequire(amount <= address(this).balance, \"Not enough balance\");\n\t\taddr.transfer(amount);\n\t}\n\n\n}\n",
  "sourcePath": "C:\\Users\\moham\\OneDrive\\Desktop\\asset-distributor-eth\\contracts\\AssetDistributor.sol",
  "compiler": {
    "name": "solc",
    "version": "0.8.13+commit.abaa5c0e.Emscripten.clang"
  },
  "schemaVersion": "3.4.16",
  "updatedAt": "2023-12-24T09:17:49.029Z",
  "networkType": "ethereum",
  "devdoc": {
    "kind": "dev",
    "methods": {},
    "version": 1
  },
  "userdoc": {
    "kind": "user",
    "methods": {},
    "version": 1
  }
}