{
  "contractName": "AssetDistibutor",
  "abi": [
    {
      "inputs": [],
      "stateMutability": "nonpayable",
      "type": "constructor"
    },
    {
      "inputs": [
        {
          "internalType": "address",
          "name": "sender",
          "type": "address"
        }
      ],
      "name": "addBalance",
      "outputs": [],
      "stateMutability": "payable",
      "type": "function",
      "payable": true
    },
    {
      "inputs": [
        {
          "internalType": "address",
          "name": "addr",
          "type": "address"
        }
      ],
      "name": "showBalance",
      "outputs": [
        {
          "internalType": "uint256",
          "name": "",
          "type": "uint256"
        }
      ],
      "stateMutability": "view",
      "type": "function",
      "constant": true
    },
    {
      "inputs": [],
      "name": "checkContractBalance",
      "outputs": [
        {
          "internalType": "uint256",
          "name": "",
          "type": "uint256"
        }
      ],
      "stateMutability": "view",
      "type": "function",
      "constant": true
    }
  ],
  "bytecode": "0x608060405234801561001057600080fd5b5033600160006101000a81548173ffffffffffffffffffffffffffffffffffffffff021916908373ffffffffffffffffffffffffffffffffffffffff1602179055506102e4806100616000396000f3fe6080604052600436106100345760003560e01c806350312c9e146100395780639c080f5d14610064578063b5cef24a146100a1575b600080fd5b34801561004557600080fd5b5061004e6100bd565b60405161005b919061017e565b60405180910390f35b34801561007057600080fd5b5061008b600480360381019061008691906101fc565b6100c5565b604051610098919061017e565b60405180910390f35b6100bb60048036038101906100b691906101fc565b61010d565b005b600047905090565b60008060008373ffffffffffffffffffffffffffffffffffffffff1673ffffffffffffffffffffffffffffffffffffffff168152602001908152602001600020549050919050565b346000808373ffffffffffffffffffffffffffffffffffffffff1673ffffffffffffffffffffffffffffffffffffffff168152602001908152602001600020600082825461015b9190610258565b9250508190555050565b6000819050919050565b61017881610165565b82525050565b6000602082019050610193600083018461016f565b92915050565b600080fd5b600073ffffffffffffffffffffffffffffffffffffffff82169050919050565b60006101c98261019e565b9050919050565b6101d9816101be565b81146101e457600080fd5b50565b6000813590506101f6816101d0565b92915050565b60006020828403121561021257610211610199565b5b6000610220848285016101e7565b91505092915050565b7f4e487b7100000000000000000000000000000000000000000000000000000000600052601160045260246000fd5b600061026382610165565b915061026e83610165565b9250827fffffffffffffffffffffffffffffffffffffffffffffffffffffffffffffffff038211156102a3576102a2610229565b5b82820190509291505056fea26469706673582212207a324438e2ebe7c27aa6511f4d47b761015ab919184bf40eb987c8199204f1bd64736f6c634300080d0033",
  "immutableReferences": {},
  "source": "// SPDX-License-Identifier: MIT\npragma solidity ^0.8.13;\n\ncontract AssetDistibutor {\n\tmapping (address => uint) balances;\n\taddress owner;\n\n\tconstructor() {\n\t\towner = msg.sender;\n\t}\n\n\tfunction addBalance(address sender) external payable{\n\t\tbalances[sender] += msg.value;\n\t}\n\n\tfunction showBalance(address addr) external view returns (uint) {\n\t\treturn balances[addr];\n\t}\n\n\tfunction checkContractBalance() external view returns (uint) {\n\t\treturn address(this).balance;\n\t}\n\t\n}\n",
  "sourcePath": "C:\\Users\\moham\\OneDrive\\Desktop\\asset-distributor-eth\\contracts\\AssetDistributor.sol",
  "compiler": {
    "name": "solc",
    "version": "0.8.13+commit.abaa5c0e.Emscripten.clang"
  },
  "schemaVersion": "3.4.16",
  "updatedAt": "2023-12-23T07:45:09.798Z",
  "networkType": "ethereum",
  "devdoc": {
    "kind": "dev",
    "methods": {},
    "version": 1
  },
  "userdoc": {
    "kind": "user",
    "methods": {},
    "version": 1
  }
}